{
  "_format": "hh-sol-artifact-1",
  "contractName": "CandleAuction",
  "sourceName": "contracts/CandleAuction.sol",
  "abi": [
    {
      "inputs": [],
      "stateMutability": "nonpayable",
      "type": "constructor"
    },
    {
      "anonymous": false,
      "inputs": [
        {
          "indexed": false,
          "internalType": "uint256",
          "name": "auctionId",
          "type": "uint256"
        },
        {
          "indexed": false,
          "internalType": "address",
          "name": "winner",
          "type": "address"
        },
        {
          "indexed": false,
          "internalType": "uint256",
          "name": "amount",
          "type": "uint256"
        }
      ],
      "name": "AuctionEnded",
      "type": "event"
    },
    {
      "anonymous": false,
      "inputs": [
        {
          "indexed": false,
          "internalType": "uint256",
          "name": "auctionId",
          "type": "uint256"
        },
        {
          "indexed": false,
          "internalType": "address",
          "name": "bidder",
          "type": "address"
        },
        {
          "indexed": false,
          "internalType": "uint256",
          "name": "amount",
          "type": "uint256"
        }
      ],
      "name": "HighestBidIncreased",
      "type": "event"
    },
    {
      "inputs": [
        {
          "internalType": "uint256",
          "name": "",
          "type": "uint256"
        }
      ],
      "name": "auctions",
      "outputs": [
        {
          "internalType": "address",
          "name": "highestBidder",
          "type": "address"
        },
        {
          "internalType": "uint256",
          "name": "highestBid",
          "type": "uint256"
        },
        {
          "internalType": "uint256",
          "name": "auctionEndTime",
          "type": "uint256"
        },
        {
          "internalType": "uint256",
          "name": "randomEndTime",
          "type": "uint256"
        },
        {
          "internalType": "bool",
          "name": "ended",
          "type": "bool"
        }
      ],
      "stateMutability": "view",
      "type": "function"
    },
    {
      "inputs": [
        {
          "internalType": "uint256",
          "name": "_biddingTime",
          "type": "uint256"
        }
      ],
      "name": "createAuction",
      "outputs": [],
      "stateMutability": "nonpayable",
      "type": "function"
    },
    {
      "inputs": [
        {
          "internalType": "uint256",
          "name": "auctionId",
          "type": "uint256"
        }
      ],
      "name": "endAuction",
      "outputs": [],
      "stateMutability": "nonpayable",
      "type": "function"
    },
    {
      "inputs": [],
      "name": "getAuctionCount",
      "outputs": [
        {
          "internalType": "uint256",
          "name": "",
          "type": "uint256"
        }
      ],
      "stateMutability": "view",
      "type": "function"
    },
    {
      "inputs": [
        {
          "internalType": "uint256",
          "name": "auctionId",
          "type": "uint256"
        }
      ],
      "name": "getAuctionDetails",
      "outputs": [
        {
          "internalType": "address",
          "name": "_highestBidder",
          "type": "address"
        },
        {
          "internalType": "uint256",
          "name": "_highestBid",
          "type": "uint256"
        },
        {
          "internalType": "uint256",
          "name": "_auctionEndTime",
          "type": "uint256"
        },
        {
          "internalType": "uint256",
          "name": "_randomEndTime",
          "type": "uint256"
        },
        {
          "internalType": "bool",
          "name": "_ended",
          "type": "bool"
        }
      ],
      "stateMutability": "view",
      "type": "function"
    },
    {
      "inputs": [],
      "name": "owner",
      "outputs": [
        {
          "internalType": "address",
          "name": "",
          "type": "address"
        }
      ],
      "stateMutability": "view",
      "type": "function"
    },
    {
      "inputs": [
        {
          "internalType": "address",
          "name": "",
          "type": "address"
        }
      ],
      "name": "pendingReturns",
      "outputs": [
        {
          "internalType": "uint256",
          "name": "",
          "type": "uint256"
        }
      ],
      "stateMutability": "view",
      "type": "function"
    },
    {
      "inputs": [
        {
          "internalType": "uint256",
          "name": "auctionId",
          "type": "uint256"
        }
      ],
      "name": "placeBid",
      "outputs": [],
      "stateMutability": "payable",
      "type": "function"
    },
    {
      "inputs": [],
      "name": "withdraw",
      "outputs": [
        {
          "internalType": "bool",
          "name": "",
          "type": "bool"
        }
      ],
      "stateMutability": "nonpayable",
      "type": "function"
    }
  ],
  "bytecode": "0x608060405234801561001057600080fd5b50336000806101000a81548173ffffffffffffffffffffffffffffffffffffffff021916908373ffffffffffffffffffffffffffffffffffffffff1602179055506110df806100606000396000f3fe6080604052600436106100865760003560e01c80639979ef45116100595780639979ef451461015f578063b9a2de3a1461017b578063c44e6640146101a4578063d5563f31146101cf578063f20e5e35146101f857610086565b806326b387bb1461008b5780633ccfd60b146100c8578063571a26a0146100f35780638da5cb5b14610134575b600080fd5b34801561009757600080fd5b506100b260048036038101906100ad9190610aad565b610239565b6040516100bf9190610af3565b60405180910390f35b3480156100d457600080fd5b506100dd610251565b6040516100ea9190610b29565b60405180910390f35b3480156100ff57600080fd5b5061011a60048036038101906101159190610b70565b610375565b60405161012b959493929190610bac565b60405180910390f35b34801561014057600080fd5b506101496103e8565b6040516101569190610bff565b60405180910390f35b61017960048036038101906101749190610b70565b61040c565b005b34801561018757600080fd5b506101a2600480360381019061019d9190610b70565b61061c565b005b3480156101b057600080fd5b506101b96107d9565b6040516101c69190610af3565b60405180910390f35b3480156101db57600080fd5b506101f660048036038101906101f19190610b70565b6107e6565b005b34801561020457600080fd5b5061021f600480360381019061021a9190610b70565b6109c3565b604051610230959493929190610bac565b60405180910390f35b60026020528060005260406000206000915090505481565b600080600260003373ffffffffffffffffffffffffffffffffffffffff1673ffffffffffffffffffffffffffffffffffffffff168152602001908152602001600020549050600081111561036c576000600260003373ffffffffffffffffffffffffffffffffffffffff1673ffffffffffffffffffffffffffffffffffffffff168152602001908152602001600020819055503373ffffffffffffffffffffffffffffffffffffffff166108fc829081150290604051600060405180830381858888f1935050505061036b5780600260003373ffffffffffffffffffffffffffffffffffffffff1673ffffffffffffffffffffffffffffffffffffffff168152602001908152602001600020819055506000915050610372565b5b60019150505b90565b6001818154811061038557600080fd5b90600052602060002090600502016000915090508060000160009054906101000a900473ffffffffffffffffffffffffffffffffffffffff16908060010154908060020154908060030154908060040160009054906101000a900460ff16905085565b60008054906101000a900473ffffffffffffffffffffffffffffffffffffffff1681565b60006001828154811061042257610421610c1a565b5b906000526020600020906005020190508060020154421115610479576040517f08c379a000000000000000000000000000000000000000000000000000000000815260040161047090610ca6565b60405180910390fd5b80600301544211156104c0576040517f08c379a00000000000000000000000000000000000000000000000000000000081526004016104b790610d12565b60405180910390fd5b80600101543411610506576040517f08c379a00000000000000000000000000000000000000000000000000000000081526004016104fd90610d7e565b60405180910390fd5b6000816001015414610591578060010154600260008360000160009054906101000a900473ffffffffffffffffffffffffffffffffffffffff1673ffffffffffffffffffffffffffffffffffffffff1673ffffffffffffffffffffffffffffffffffffffff16815260200190815260200160002060008282546105899190610dcd565b925050819055505b338160000160006101000a81548173ffffffffffffffffffffffffffffffffffffffff021916908373ffffffffffffffffffffffffffffffffffffffff1602179055503481600101819055507fda0a18da71d8ebd145966339a728fc0d8ccc07c22870d561890d823c515dda6b82333460405161061093929190610e01565b60405180910390a15050565b60006001828154811061063257610631610c1a565b5b90600052602060002090600502019050806002015442101580610659575080600301544210155b610698576040517f08c379a000000000000000000000000000000000000000000000000000000000815260040161068f90610e84565b60405180910390fd5b8060040160009054906101000a900460ff16156106ea576040517f08c379a00000000000000000000000000000000000000000000000000000000081526004016106e190610f16565b60405180910390fd5b60018160040160006101000a81548160ff0219169083151502179055507fd2aa34a4fdbbc6dff6a3e56f46e0f3ae2a31d7785ff3487aa5c95c642acea501828260000160009054906101000a900473ffffffffffffffffffffffffffffffffffffffff16836001015460405161076293929190610e01565b60405180910390a160008054906101000a900473ffffffffffffffffffffffffffffffffffffffff1673ffffffffffffffffffffffffffffffffffffffff166108fc82600101549081150290604051600060405180830381858888f193505050501580156107d4573d6000803e3d6000fd5b505050565b6000600180549050905090565b60008054906101000a900473ffffffffffffffffffffffffffffffffffffffff1673ffffffffffffffffffffffffffffffffffffffff163373ffffffffffffffffffffffffffffffffffffffff1614610874576040517f08c379a000000000000000000000000000000000000000000000000000000000815260040161086b90610fa8565b60405180910390fd5b600081426108829190610dcd565b9050600082424460405160200161089a929190610fe9565b6040516020818303038152906040528051906020012060001c6108bd9190611044565b826108c89190611075565b905060016040518060a00160405280600073ffffffffffffffffffffffffffffffffffffffff1681526020016000815260200184815260200183815260200160001515815250908060018154018082558091505060019003906000526020600020906005020160009091909190915060008201518160000160006101000a81548173ffffffffffffffffffffffffffffffffffffffff021916908373ffffffffffffffffffffffffffffffffffffffff16021790555060208201518160010155604082015181600201556060820151816003015560808201518160040160006101000a81548160ff0219169083151502179055505050505050565b600080600080600080600187815481106109e0576109df610c1a565b5b906000526020600020906005020190508060000160009054906101000a900473ffffffffffffffffffffffffffffffffffffffff168160010154826002015483600301548460040160009054906101000a900460ff16955095509550955095505091939590929450565b600080fd5b600073ffffffffffffffffffffffffffffffffffffffff82169050919050565b6000610a7a82610a4f565b9050919050565b610a8a81610a6f565b8114610a9557600080fd5b50565b600081359050610aa781610a81565b92915050565b600060208284031215610ac357610ac2610a4a565b5b6000610ad184828501610a98565b91505092915050565b6000819050919050565b610aed81610ada565b82525050565b6000602082019050610b086000830184610ae4565b92915050565b60008115159050919050565b610b2381610b0e565b82525050565b6000602082019050610b3e6000830184610b1a565b92915050565b610b4d81610ada565b8114610b5857600080fd5b50565b600081359050610b6a81610b44565b92915050565b600060208284031215610b8657610b85610a4a565b5b6000610b9484828501610b5b565b91505092915050565b610ba681610a6f565b82525050565b600060a082019050610bc16000830188610b9d565b610bce6020830187610ae4565b610bdb6040830186610ae4565b610be86060830185610ae4565b610bf56080830184610b1a565b9695505050505050565b6000602082019050610c146000830184610b9d565b92915050565b7f4e487b7100000000000000000000000000000000000000000000000000000000600052603260045260246000fd5b600082825260208201905092915050565b7f41756374696f6e20616c726561647920656e6465642e00000000000000000000600082015250565b6000610c90601683610c49565b9150610c9b82610c5a565b602082019050919050565b60006020820190508181036000830152610cbf81610c83565b9050919050565b7f41756374696f6e20656e6465642072616e646f6d6c792e000000000000000000600082015250565b6000610cfc601783610c49565b9150610d0782610cc6565b602082019050919050565b60006020820190508181036000830152610d2b81610cef565b9050919050565b7f546865726520616c7265616479206973206120686967686572206269642e0000600082015250565b6000610d68601e83610c49565b9150610d7382610d32565b602082019050919050565b60006020820190508181036000830152610d9781610d5b565b9050919050565b7f4e487b7100000000000000000000000000000000000000000000000000000000600052601160045260246000fd5b6000610dd882610ada565b9150610de383610ada565b9250828201905080821115610dfb57610dfa610d9e565b5b92915050565b6000606082019050610e166000830186610ae4565b610e236020830185610b9d565b610e306040830184610ae4565b949350505050565b7f41756374696f6e206e6f742079657420656e6465642e00000000000000000000600082015250565b6000610e6e601683610c49565b9150610e7982610e38565b602082019050919050565b60006020820190508181036000830152610e9d81610e61565b9050919050565b7f656e6441756374696f6e2068617320616c7265616479206265656e2063616c6c60008201527f65642e0000000000000000000000000000000000000000000000000000000000602082015250565b6000610f00602383610c49565b9150610f0b82610ea4565b604082019050919050565b60006020820190508181036000830152610f2f81610ef3565b9050919050565b7f4f6e6c7920746865206f776e65722063616e206372656174652061756374696f60008201527f6e732e0000000000000000000000000000000000000000000000000000000000602082015250565b6000610f92602383610c49565b9150610f9d82610f36565b604082019050919050565b60006020820190508181036000830152610fc181610f85565b9050919050565b6000819050919050565b610fe3610fde82610ada565b610fc8565b82525050565b6000610ff58285610fd2565b6020820191506110058284610fd2565b6020820191508190509392505050565b7f4e487b7100000000000000000000000000000000000000000000000000000000600052601260045260246000fd5b600061104f82610ada565b915061105a83610ada565b92508261106a57611069611015565b5b828206905092915050565b600061108082610ada565b915061108b83610ada565b92508282039050818111156110a3576110a2610d9e565b5b9291505056fea264697066735822122069dabed57cd80d16c7bc27fcd06584e0ba47750f14cf6b173e90c228c0769ca864736f6c63430008180033",
  "linkReferences": {},
  "deployedLinkReferences": {}
}