{
  "_format": "hh-sol-artifact-1",
  "contractName": "CandleAuction",
  "sourceName": "contracts/CandleAuction.sol",
  "abi": [
    {
      "inputs": [],
      "stateMutability": "nonpayable",
      "type": "constructor"
    },
    {
      "anonymous": false,
      "inputs": [
        {
          "indexed": false,
          "internalType": "uint256",
          "name": "auctionId",
          "type": "uint256"
        },
        {
          "indexed": false,
          "internalType": "address",
          "name": "winner",
          "type": "address"
        },
        {
          "indexed": false,
          "internalType": "uint256",
          "name": "amount",
          "type": "uint256"
        }
      ],
      "name": "AuctionEnded",
      "type": "event"
    },
    {
      "anonymous": false,
      "inputs": [
        {
          "indexed": false,
          "internalType": "uint256",
          "name": "auctionId",
          "type": "uint256"
        },
        {
          "indexed": false,
          "internalType": "address",
          "name": "bidder",
          "type": "address"
        },
        {
          "indexed": false,
          "internalType": "uint256",
          "name": "amount",
          "type": "uint256"
        }
      ],
      "name": "HighestBidIncreased",
      "type": "event"
    },
    {
      "inputs": [
        {
          "internalType": "uint256",
          "name": "",
          "type": "uint256"
        }
      ],
      "name": "auctions",
      "outputs": [
        {
          "internalType": "string",
          "name": "auctionItem",
          "type": "string"
        },
        {
          "internalType": "address",
          "name": "highestBidder",
          "type": "address"
        },
        {
          "internalType": "uint256",
          "name": "highestBid",
          "type": "uint256"
        },
        {
          "internalType": "uint256",
          "name": "auctionEndTime",
          "type": "uint256"
        },
        {
          "internalType": "uint256",
          "name": "randomEndTime",
          "type": "uint256"
        },
        {
          "internalType": "bool",
          "name": "ended",
          "type": "bool"
        }
      ],
      "stateMutability": "view",
      "type": "function"
    },
    {
      "inputs": [
        {
          "internalType": "uint256",
          "name": "_biddingTime",
          "type": "uint256"
        },
        {
          "internalType": "string",
          "name": "_auctionItem",
          "type": "string"
        }
      ],
      "name": "createAuction",
      "outputs": [],
      "stateMutability": "nonpayable",
      "type": "function"
    },
    {
      "inputs": [
        {
          "internalType": "uint256",
          "name": "auctionId",
          "type": "uint256"
        }
      ],
      "name": "endAuction",
      "outputs": [],
      "stateMutability": "nonpayable",
      "type": "function"
    },
    {
      "inputs": [],
      "name": "getAuctionCount",
      "outputs": [
        {
          "internalType": "uint256",
          "name": "",
          "type": "uint256"
        }
      ],
      "stateMutability": "view",
      "type": "function"
    },
    {
      "inputs": [
        {
          "internalType": "uint256",
          "name": "auctionId",
          "type": "uint256"
        }
      ],
      "name": "getAuctionDetails",
      "outputs": [
        {
          "internalType": "string",
          "name": "_auctionItem",
          "type": "string"
        },
        {
          "internalType": "address",
          "name": "_highestBidder",
          "type": "address"
        },
        {
          "internalType": "uint256",
          "name": "_highestBid",
          "type": "uint256"
        },
        {
          "internalType": "uint256",
          "name": "_auctionEndTime",
          "type": "uint256"
        },
        {
          "internalType": "uint256",
          "name": "_randomEndTime",
          "type": "uint256"
        },
        {
          "internalType": "bool",
          "name": "_ended",
          "type": "bool"
        }
      ],
      "stateMutability": "view",
      "type": "function"
    },
    {
      "inputs": [],
      "name": "owner",
      "outputs": [
        {
          "internalType": "address",
          "name": "",
          "type": "address"
        }
      ],
      "stateMutability": "view",
      "type": "function"
    },
    {
      "inputs": [
        {
          "internalType": "address",
          "name": "",
          "type": "address"
        }
      ],
      "name": "pendingReturns",
      "outputs": [
        {
          "internalType": "uint256",
          "name": "",
          "type": "uint256"
        }
      ],
      "stateMutability": "view",
      "type": "function"
    },
    {
      "inputs": [
        {
          "internalType": "uint256",
          "name": "auctionId",
          "type": "uint256"
        }
      ],
      "name": "placeBid",
      "outputs": [],
      "stateMutability": "payable",
      "type": "function"
    },
    {
      "inputs": [],
      "name": "withdraw",
      "outputs": [
        {
          "internalType": "bool",
          "name": "",
          "type": "bool"
        }
      ],
      "stateMutability": "nonpayable",
      "type": "function"
    }
  ],
  "bytecode": "0x608060405234801561001057600080fd5b50336000806101000a81548173ffffffffffffffffffffffffffffffffffffffff021916908373ffffffffffffffffffffffffffffffffffffffff160217905550611732806100606000396000f3fe6080604052600436106100865760003560e01c80639979ef45116100595780639979ef4514610160578063adaa19921461017c578063b9a2de3a146101a5578063c44e6640146101ce578063f20e5e35146101f957610086565b806326b387bb1461008b5780633ccfd60b146100c8578063571a26a0146100f35780638da5cb5b14610135575b600080fd5b34801561009757600080fd5b506100b260048036038101906100ad9190610bfd565b61023b565b6040516100bf9190610c43565b60405180910390f35b3480156100d457600080fd5b506100dd610253565b6040516100ea9190610c79565b60405180910390f35b3480156100ff57600080fd5b5061011a60048036038101906101159190610cc0565b610377565b60405161012c96959493929190610d8c565b60405180910390f35b34801561014157600080fd5b5061014a610478565b6040516101579190610df4565b60405180910390f35b61017a60048036038101906101759190610cc0565b61049c565b005b34801561018857600080fd5b506101a3600480360381019061019e9190610f44565b6106ac565b005b3480156101b157600080fd5b506101cc60048036038101906101c79190610cc0565b6108a6565b005b3480156101da57600080fd5b506101e3610a63565b6040516101f09190610c43565b60405180910390f35b34801561020557600080fd5b50610220600480360381019061021b9190610cc0565b610a70565b60405161023296959493929190610d8c565b60405180910390f35b60026020528060005260406000206000915090505481565b600080600260003373ffffffffffffffffffffffffffffffffffffffff1673ffffffffffffffffffffffffffffffffffffffff168152602001908152602001600020549050600081111561036e576000600260003373ffffffffffffffffffffffffffffffffffffffff1673ffffffffffffffffffffffffffffffffffffffff168152602001908152602001600020819055503373ffffffffffffffffffffffffffffffffffffffff166108fc829081150290604051600060405180830381858888f1935050505061036d5780600260003373ffffffffffffffffffffffffffffffffffffffff1673ffffffffffffffffffffffffffffffffffffffff168152602001908152602001600020819055506000915050610374565b5b60019150505b90565b6001818154811061038757600080fd5b90600052602060002090600602016000915090508060000180546103aa90610fcf565b80601f01602080910402602001604051908101604052809291908181526020018280546103d690610fcf565b80156104235780601f106103f857610100808354040283529160200191610423565b820191906000526020600020905b81548152906001019060200180831161040657829003601f168201915b5050505050908060010160009054906101000a900473ffffffffffffffffffffffffffffffffffffffff16908060020154908060030154908060040154908060050160009054906101000a900460ff16905086565b60008054906101000a900473ffffffffffffffffffffffffffffffffffffffff1681565b6000600182815481106104b2576104b1611000565b5b906000526020600020906006020190508060030154421115610509576040517f08c379a00000000000000000000000000000000000000000000000000000000081526004016105009061107b565b60405180910390fd5b8060040154421115610550576040517f08c379a0000000000000000000000000000000000000000000000000000000008152600401610547906110e7565b60405180910390fd5b80600201543411610596576040517f08c379a000000000000000000000000000000000000000000000000000000000815260040161058d90611153565b60405180910390fd5b6000816002015414610621578060020154600260008360010160009054906101000a900473ffffffffffffffffffffffffffffffffffffffff1673ffffffffffffffffffffffffffffffffffffffff1673ffffffffffffffffffffffffffffffffffffffff168152602001908152602001600020600082825461061991906111a2565b925050819055505b338160010160006101000a81548173ffffffffffffffffffffffffffffffffffffffff021916908373ffffffffffffffffffffffffffffffffffffffff1602179055503481600201819055507fda0a18da71d8ebd145966339a728fc0d8ccc07c22870d561890d823c515dda6b8233346040516106a0939291906111d6565b60405180910390a15050565b60008054906101000a900473ffffffffffffffffffffffffffffffffffffffff1673ffffffffffffffffffffffffffffffffffffffff163373ffffffffffffffffffffffffffffffffffffffff161461073a576040517f08c379a00000000000000000000000000000000000000000000000000000000081526004016107319061127f565b60405180910390fd5b6000824261074891906111a2565b905060008342446040516020016107609291906112c0565b6040516020818303038152906040528051906020012060001c610783919061131b565b8261078e919061134c565b905060016040518060c00160405280858152602001600073ffffffffffffffffffffffffffffffffffffffff168152602001600081526020018481526020018381526020016000151581525090806001815401808255809150506001900390600052602060002090600602016000909190919091506000820151816000019081610818919061152c565b5060208201518160010160006101000a81548173ffffffffffffffffffffffffffffffffffffffff021916908373ffffffffffffffffffffffffffffffffffffffff16021790555060408201518160020155606082015181600301556080820151816004015560a08201518160050160006101000a81548160ff021916908315150217905550505050505050565b6000600182815481106108bc576108bb611000565b5b906000526020600020906006020190508060030154421015806108e3575080600401544210155b610922576040517f08c379a00000000000000000000000000000000000000000000000000000000081526004016109199061164a565b60405180910390fd5b8060050160009054906101000a900460ff1615610974576040517f08c379a000000000000000000000000000000000000000000000000000000000815260040161096b906116dc565b60405180910390fd5b60018160050160006101000a81548160ff0219169083151502179055507fd2aa34a4fdbbc6dff6a3e56f46e0f3ae2a31d7785ff3487aa5c95c642acea501828260010160009054906101000a900473ffffffffffffffffffffffffffffffffffffffff1683600201546040516109ec939291906111d6565b60405180910390a160008054906101000a900473ffffffffffffffffffffffffffffffffffffffff1673ffffffffffffffffffffffffffffffffffffffff166108fc82600201549081150290604051600060405180830381858888f19350505050158015610a5e573d6000803e3d6000fd5b505050565b6000600180549050905090565b606060008060008060008060018881548110610a8f57610a8e611000565b5b90600052602060002090600602019050806000018160010160009054906101000a900473ffffffffffffffffffffffffffffffffffffffff168260020154836003015484600401548560050160009054906101000a900460ff16858054610af590610fcf565b80601f0160208091040260200160405190810160405280929190818152602001828054610b2190610fcf565b8015610b6e5780601f10610b4357610100808354040283529160200191610b6e565b820191906000526020600020905b815481529060010190602001808311610b5157829003601f168201915b505050505095509650965096509650965096505091939550919395565b6000604051905090565b600080fd5b600080fd5b600073ffffffffffffffffffffffffffffffffffffffff82169050919050565b6000610bca82610b9f565b9050919050565b610bda81610bbf565b8114610be557600080fd5b50565b600081359050610bf781610bd1565b92915050565b600060208284031215610c1357610c12610b95565b5b6000610c2184828501610be8565b91505092915050565b6000819050919050565b610c3d81610c2a565b82525050565b6000602082019050610c586000830184610c34565b92915050565b60008115159050919050565b610c7381610c5e565b82525050565b6000602082019050610c8e6000830184610c6a565b92915050565b610c9d81610c2a565b8114610ca857600080fd5b50565b600081359050610cba81610c94565b92915050565b600060208284031215610cd657610cd5610b95565b5b6000610ce484828501610cab565b91505092915050565b600081519050919050565b600082825260208201905092915050565b60005b83811015610d27578082015181840152602081019050610d0c565b60008484015250505050565b6000601f19601f8301169050919050565b6000610d4f82610ced565b610d598185610cf8565b9350610d69818560208601610d09565b610d7281610d33565b840191505092915050565b610d8681610bbf565b82525050565b600060c0820190508181036000830152610da68189610d44565b9050610db56020830188610d7d565b610dc26040830187610c34565b610dcf6060830186610c34565b610ddc6080830185610c34565b610de960a0830184610c6a565b979650505050505050565b6000602082019050610e096000830184610d7d565b92915050565b600080fd5b600080fd5b7f4e487b7100000000000000000000000000000000000000000000000000000000600052604160045260246000fd5b610e5182610d33565b810181811067ffffffffffffffff82111715610e7057610e6f610e19565b5b80604052505050565b6000610e83610b8b565b9050610e8f8282610e48565b919050565b600067ffffffffffffffff821115610eaf57610eae610e19565b5b610eb882610d33565b9050602081019050919050565b82818337600083830152505050565b6000610ee7610ee284610e94565b610e79565b905082815260208101848484011115610f0357610f02610e14565b5b610f0e848285610ec5565b509392505050565b600082601f830112610f2b57610f2a610e0f565b5b8135610f3b848260208601610ed4565b91505092915050565b60008060408385031215610f5b57610f5a610b95565b5b6000610f6985828601610cab565b925050602083013567ffffffffffffffff811115610f8a57610f89610b9a565b5b610f9685828601610f16565b9150509250929050565b7f4e487b7100000000000000000000000000000000000000000000000000000000600052602260045260246000fd5b60006002820490506001821680610fe757607f821691505b602082108103610ffa57610ff9610fa0565b5b50919050565b7f4e487b7100000000000000000000000000000000000000000000000000000000600052603260045260246000fd5b7f41756374696f6e20616c726561647920656e6465642e00000000000000000000600082015250565b6000611065601683610cf8565b91506110708261102f565b602082019050919050565b6000602082019050818103600083015261109481611058565b9050919050565b7f41756374696f6e20656e6465642072616e646f6d6c792e000000000000000000600082015250565b60006110d1601783610cf8565b91506110dc8261109b565b602082019050919050565b60006020820190508181036000830152611100816110c4565b9050919050565b7f546865726520616c7265616479206973206120686967686572206269642e0000600082015250565b600061113d601e83610cf8565b915061114882611107565b602082019050919050565b6000602082019050818103600083015261116c81611130565b9050919050565b7f4e487b7100000000000000000000000000000000000000000000000000000000600052601160045260246000fd5b60006111ad82610c2a565b91506111b883610c2a565b92508282019050808211156111d0576111cf611173565b5b92915050565b60006060820190506111eb6000830186610c34565b6111f86020830185610d7d565b6112056040830184610c34565b949350505050565b7f4f6e6c7920746865206f776e65722063616e206372656174652061756374696f60008201527f6e732e0000000000000000000000000000000000000000000000000000000000602082015250565b6000611269602383610cf8565b91506112748261120d565b604082019050919050565b600060208201905081810360008301526112988161125c565b9050919050565b6000819050919050565b6112ba6112b582610c2a565b61129f565b82525050565b60006112cc82856112a9565b6020820191506112dc82846112a9565b6020820191508190509392505050565b7f4e487b7100000000000000000000000000000000000000000000000000000000600052601260045260246000fd5b600061132682610c2a565b915061133183610c2a565b925082611341576113406112ec565b5b828206905092915050565b600061135782610c2a565b915061136283610c2a565b925082820390508181111561137a57611379611173565b5b92915050565b60008190508160005260206000209050919050565b60006020601f8301049050919050565b600082821b905092915050565b6000600883026113e27fffffffffffffffffffffffffffffffffffffffffffffffffffffffffffffffff826113a5565b6113ec86836113a5565b95508019841693508086168417925050509392505050565b6000819050919050565b600061142961142461141f84610c2a565b611404565b610c2a565b9050919050565b6000819050919050565b6114438361140e565b61145761144f82611430565b8484546113b2565b825550505050565b600090565b61146c61145f565b61147781848461143a565b505050565b5b8181101561149b57611490600082611464565b60018101905061147d565b5050565b601f8211156114e0576114b181611380565b6114ba84611395565b810160208510156114c9578190505b6114dd6114d585611395565b83018261147c565b50505b505050565b600082821c905092915050565b6000611503600019846008026114e5565b1980831691505092915050565b600061151c83836114f2565b9150826002028217905092915050565b61153582610ced565b67ffffffffffffffff81111561154e5761154d610e19565b5b6115588254610fcf565b61156382828561149f565b600060209050601f8311600181146115965760008415611584578287015190505b61158e8582611510565b8655506115f6565b601f1984166115a486611380565b60005b828110156115cc578489015182556001820191506020850194506020810190506115a7565b868310156115e957848901516115e5601f8916826114f2565b8355505b6001600288020188555050505b505050505050565b7f41756374696f6e206e6f742079657420656e6465642e00000000000000000000600082015250565b6000611634601683610cf8565b915061163f826115fe565b602082019050919050565b6000602082019050818103600083015261166381611627565b9050919050565b7f656e6441756374696f6e2068617320616c7265616479206265656e2063616c6c60008201527f65642e0000000000000000000000000000000000000000000000000000000000602082015250565b60006116c6602383610cf8565b91506116d18261166a565b604082019050919050565b600060208201905081810360008301526116f5816116b9565b905091905056fea264697066735822122093cd3f44a0a35e5e8072ff7ada3d38b280a018675e65f48b03381210f717896964736f6c63430008180033",
  "linkReferences": {},
  "deployedLinkReferences": {}
}