{
  "_format": "hh-sol-artifact-1",
  "contractName": "CombinedCandleAuction",
  "sourceName": "contracts/CombinedCandleAuction.sol",
  "abi": [
    {
      "inputs": [],
      "stateMutability": "nonpayable",
      "type": "constructor"
    },
    {
      "anonymous": false,
      "inputs": [
        {
          "indexed": false,
          "internalType": "uint256",
          "name": "id",
          "type": "uint256"
        },
        {
          "indexed": false,
          "internalType": "address",
          "name": "auctionOwner",
          "type": "address"
        },
        {
          "indexed": false,
          "internalType": "string",
          "name": "itemName",
          "type": "string"
        }
      ],
      "name": "AuctionCreated",
      "type": "event"
    },
    {
      "anonymous": false,
      "inputs": [
        {
          "indexed": false,
          "internalType": "uint256",
          "name": "auctionId",
          "type": "uint256"
        },
        {
          "indexed": false,
          "internalType": "address",
          "name": "winner",
          "type": "address"
        },
        {
          "indexed": false,
          "internalType": "uint256",
          "name": "amount",
          "type": "uint256"
        }
      ],
      "name": "AuctionEnded",
      "type": "event"
    },
    {
      "anonymous": false,
      "inputs": [
        {
          "indexed": false,
          "internalType": "uint256",
          "name": "id",
          "type": "uint256"
        },
        {
          "indexed": false,
          "internalType": "uint256",
          "name": "endTime",
          "type": "uint256"
        }
      ],
      "name": "AuctionStarted",
      "type": "event"
    },
    {
      "anonymous": false,
      "inputs": [
        {
          "indexed": false,
          "internalType": "uint256",
          "name": "auctionId",
          "type": "uint256"
        },
        {
          "indexed": false,
          "internalType": "address",
          "name": "bidder",
          "type": "address"
        },
        {
          "indexed": false,
          "internalType": "uint256",
          "name": "amount",
          "type": "uint256"
        }
      ],
      "name": "HighestBidIncreased",
      "type": "event"
    },
    {
      "inputs": [],
      "name": "auctionCount",
      "outputs": [
        {
          "internalType": "uint256",
          "name": "",
          "type": "uint256"
        }
      ],
      "stateMutability": "view",
      "type": "function"
    },
    {
      "inputs": [
        {
          "internalType": "uint256",
          "name": "",
          "type": "uint256"
        }
      ],
      "name": "auctions",
      "outputs": [
        {
          "internalType": "address",
          "name": "auctionOwner",
          "type": "address"
        },
        {
          "internalType": "address",
          "name": "highestBidder",
          "type": "address"
        },
        {
          "internalType": "uint256",
          "name": "highestBid",
          "type": "uint256"
        },
        {
          "internalType": "uint256",
          "name": "endTime",
          "type": "uint256"
        },
        {
          "internalType": "bool",
          "name": "ended",
          "type": "bool"
        },
        {
          "internalType": "bool",
          "name": "started",
          "type": "bool"
        },
        {
          "internalType": "string",
          "name": "itemName",
          "type": "string"
        }
      ],
      "stateMutability": "view",
      "type": "function"
    },
    {
      "inputs": [
        {
          "internalType": "uint256",
          "name": "_auctionId",
          "type": "uint256"
        }
      ],
      "name": "bid",
      "outputs": [],
      "stateMutability": "payable",
      "type": "function"
    },
    {
      "inputs": [
        {
          "internalType": "string",
          "name": "_itemName",
          "type": "string"
        }
      ],
      "name": "createNewAuction",
      "outputs": [],
      "stateMutability": "nonpayable",
      "type": "function"
    },
    {
      "inputs": [
        {
          "internalType": "uint256",
          "name": "_auctionId",
          "type": "uint256"
        }
      ],
      "name": "endAuction",
      "outputs": [],
      "stateMutability": "nonpayable",
      "type": "function"
    },
    {
      "inputs": [
        {
          "internalType": "uint256",
          "name": "_id",
          "type": "uint256"
        }
      ],
      "name": "getAuction",
      "outputs": [
        {
          "components": [
            {
              "internalType": "address",
              "name": "auctionOwner",
              "type": "address"
            },
            {
              "internalType": "address",
              "name": "highestBidder",
              "type": "address"
            },
            {
              "internalType": "uint256",
              "name": "highestBid",
              "type": "uint256"
            },
            {
              "internalType": "uint256",
              "name": "endTime",
              "type": "uint256"
            },
            {
              "internalType": "bool",
              "name": "ended",
              "type": "bool"
            },
            {
              "internalType": "bool",
              "name": "started",
              "type": "bool"
            },
            {
              "internalType": "string",
              "name": "itemName",
              "type": "string"
            }
          ],
          "internalType": "struct CombinedCandleAuction.Auction",
          "name": "",
          "type": "tuple"
        }
      ],
      "stateMutability": "view",
      "type": "function"
    },
    {
      "inputs": [],
      "name": "getOwner",
      "outputs": [
        {
          "internalType": "address",
          "name": "",
          "type": "address"
        }
      ],
      "stateMutability": "view",
      "type": "function"
    },
    {
      "inputs": [],
      "name": "owner",
      "outputs": [
        {
          "internalType": "address",
          "name": "",
          "type": "address"
        }
      ],
      "stateMutability": "view",
      "type": "function"
    },
    {
      "inputs": [
        {
          "internalType": "uint256",
          "name": "_auctionId",
          "type": "uint256"
        },
        {
          "internalType": "uint256",
          "name": "_biddingTime",
          "type": "uint256"
        }
      ],
      "name": "startAuction",
      "outputs": [],
      "stateMutability": "nonpayable",
      "type": "function"
    }
  ],
  "bytecode": "0x608060405234801561001057600080fd5b50336000806101000a81548173ffffffffffffffffffffffffffffffffffffffff021916908373ffffffffffffffffffffffffffffffffffffffff160217905550611c9d806100606000396000f3fe6080604052600436106100865760003560e01c806378bd79351161005957806378bd79351461013e578063893d20e81461017b5780638da5cb5b146101a6578063b9a2de3a146101d1578063f098c2c1146101fa57610086565b80632ad715731461008b578063454a2ab3146100b65780634fee13fc146100d2578063571a26a0146100fb575b600080fd5b34801561009757600080fd5b506100a0610223565b6040516100ad9190610f4e565b60405180910390f35b6100d060048036038101906100cb9190610fa9565b610229565b005b3480156100de57600080fd5b506100f960048036038101906100f49190610fd6565b610425565b005b34801561010757600080fd5b50610122600480360381019061011d9190610fa9565b610593565b6040516101359796959493929190611102565b60405180910390f35b34801561014a57600080fd5b5061016560048036038101906101609190610fa9565b6106b7565b604051610172919061128b565b60405180910390f35b34801561018757600080fd5b506101906108b0565b60405161019d91906112ad565b60405180910390f35b3480156101b257600080fd5b506101bb6108d9565b6040516101c891906112ad565b60405180910390f35b3480156101dd57600080fd5b506101f860048036038101906101f39190610fa9565b6108fd565b005b34801561020657600080fd5b50610221600480360381019061021c91906113fd565b610af1565b005b60015481565b60006002600083815260200190815260200160002090508060040160019054906101000a900460ff16610291576040517f08c379a000000000000000000000000000000000000000000000000000000000815260040161028890611492565b60405180910390fd5b80600301544211156102d8576040517f08c379a00000000000000000000000000000000000000000000000000000000081526004016102cf906114fe565b60405180910390fd5b8060020154341161031e576040517f08c379a00000000000000000000000000000000000000000000000000000000081526004016103159061156a565b60405180910390fd5b600081600201541461039a578060010160009054906101000a900473ffffffffffffffffffffffffffffffffffffffff1673ffffffffffffffffffffffffffffffffffffffff166108fc82600201549081150290604051600060405180830381858888f19350505050158015610398573d6000803e3d6000fd5b505b338160010160006101000a81548173ffffffffffffffffffffffffffffffffffffffff021916908373ffffffffffffffffffffffffffffffffffffffff1602179055503481600201819055507fda0a18da71d8ebd145966339a728fc0d8ccc07c22870d561890d823c515dda6b8233346040516104199392919061158a565b60405180910390a15050565b60006002600084815260200190815260200160002090508060000160009054906101000a900473ffffffffffffffffffffffffffffffffffffffff1673ffffffffffffffffffffffffffffffffffffffff163373ffffffffffffffffffffffffffffffffffffffff16146104ce576040517f08c379a00000000000000000000000000000000000000000000000000000000081526004016104c590611633565b60405180910390fd5b8060040160019054906101000a900460ff1615610520576040517f08c379a00000000000000000000000000000000000000000000000000000000081526004016105179061169f565b60405180910390fd5b60018160040160016101000a81548160ff021916908315150217905550814261054991906116ee565b81600301819055507ff8910119ddbef5440c54532457dfe8250a10ed39e583292818f44724b9e1344c838260030154604051610586929190611722565b60405180910390a1505050565b60026020528060005260406000206000915090508060000160009054906101000a900473ffffffffffffffffffffffffffffffffffffffff16908060010160009054906101000a900473ffffffffffffffffffffffffffffffffffffffff16908060020154908060030154908060040160009054906101000a900460ff16908060040160019054906101000a900460ff16908060050180546106349061177a565b80601f01602080910402602001604051908101604052809291908181526020018280546106609061177a565b80156106ad5780601f10610682576101008083540402835291602001916106ad565b820191906000526020600020905b81548152906001019060200180831161069057829003601f168201915b5050505050905087565b6106bf610ebe565b6001548210610703576040517f08c379a00000000000000000000000000000000000000000000000000000000081526004016106fa906117f7565b60405180910390fd5b600260008381526020019081526020016000206040518060e00160405290816000820160009054906101000a900473ffffffffffffffffffffffffffffffffffffffff1673ffffffffffffffffffffffffffffffffffffffff1673ffffffffffffffffffffffffffffffffffffffff1681526020016001820160009054906101000a900473ffffffffffffffffffffffffffffffffffffffff1673ffffffffffffffffffffffffffffffffffffffff1673ffffffffffffffffffffffffffffffffffffffff16815260200160028201548152602001600382015481526020016004820160009054906101000a900460ff161515151581526020016004820160019054906101000a900460ff161515151581526020016005820180546108279061177a565b80601f01602080910402602001604051908101604052809291908181526020018280546108539061177a565b80156108a05780601f10610875576101008083540402835291602001916108a0565b820191906000526020600020905b81548152906001019060200180831161088357829003601f168201915b5050505050815250509050919050565b60008060009054906101000a900473ffffffffffffffffffffffffffffffffffffffff16905090565b60008054906101000a900473ffffffffffffffffffffffffffffffffffffffff1681565b60006002600083815260200190815260200160002090508060040160019054906101000a900460ff16610965576040517f08c379a000000000000000000000000000000000000000000000000000000000815260040161095c90611492565b60405180910390fd5b80600301544210156109ac576040517f08c379a00000000000000000000000000000000000000000000000000000000081526004016109a390611863565b60405180910390fd5b8060040160009054906101000a900460ff16156109fe576040517f08c379a00000000000000000000000000000000000000000000000000000000081526004016109f5906118f5565b60405180910390fd5b60018160040160006101000a81548160ff0219169083151502179055507fd2aa34a4fdbbc6dff6a3e56f46e0f3ae2a31d7785ff3487aa5c95c642acea501828260010160009054906101000a900473ffffffffffffffffffffffffffffffffffffffff168360020154604051610a769392919061158a565b60405180910390a18060000160009054906101000a900473ffffffffffffffffffffffffffffffffffffffff1673ffffffffffffffffffffffffffffffffffffffff166108fc82600201549081150290604051600060405180830381858888f19350505050158015610aec573d6000803e3d6000fd5b505050565b610b306040518060400160405280601a81526020017f4372656174696e672061756374696f6e20666f72206974656d3a00000000000081525082610d40565b610b6f6040518060400160405280600781526020017f53656e6465723a0000000000000000000000000000000000000000000000000081525033610ddc565b6040518060e001604052803373ffffffffffffffffffffffffffffffffffffffff168152602001600073ffffffffffffffffffffffffffffffffffffffff16815260200160008152602001600081526020016000151581526020016000151581526020018281525060026000600154815260200190815260200160002060008201518160000160006101000a81548173ffffffffffffffffffffffffffffffffffffffff021916908373ffffffffffffffffffffffffffffffffffffffff16021790555060208201518160010160006101000a81548173ffffffffffffffffffffffffffffffffffffffff021916908373ffffffffffffffffffffffffffffffffffffffff160217905550604082015181600201556060820151816003015560808201518160040160006101000a81548160ff02191690831515021790555060a08201518160040160016101000a81548160ff02191690831515021790555060c0820151816005019081610ce39190611ac1565b509050507fb928fabb4287b33fb3d59644b08cfd2e726532740f8ba9d42f17ece23fbff37f6001543383604051610d1c93929190611b93565b60405180910390a16001806000828254610d3691906116ee565b9250508190555050565b610dd88282604051602401610d56929190611bd1565b6040516020818303038152906040527f4b5c4277000000000000000000000000000000000000000000000000000000007bffffffffffffffffffffffffffffffffffffffffffffffffffffffff19166020820180517bffffffffffffffffffffffffffffffffffffffffffffffffffffffff8381831617835250505050610e78565b5050565b610e748282604051602401610df2929190611c08565b6040516020818303038152906040527f319af333000000000000000000000000000000000000000000000000000000007bffffffffffffffffffffffffffffffffffffffffffffffffffffffff19166020820180517bffffffffffffffffffffffffffffffffffffffffffffffffffffffff8381831617835250505050610e78565b5050565b610e8f81610e87610e92610eb3565b63ffffffff16565b50565b60006a636f6e736f6c652e6c6f679050600080835160208501845afa505050565b610f2b819050919050565b6040518060e00160405280600073ffffffffffffffffffffffffffffffffffffffff168152602001600073ffffffffffffffffffffffffffffffffffffffff1681526020016000815260200160008152602001600015158152602001600015158152602001606081525090565b610f33611c38565b565b6000819050919050565b610f4881610f35565b82525050565b6000602082019050610f636000830184610f3f565b92915050565b6000604051905090565b600080fd5b600080fd5b610f8681610f35565b8114610f9157600080fd5b50565b600081359050610fa381610f7d565b92915050565b600060208284031215610fbf57610fbe610f73565b5b6000610fcd84828501610f94565b91505092915050565b60008060408385031215610fed57610fec610f73565b5b6000610ffb85828601610f94565b925050602061100c85828601610f94565b9150509250929050565b600073ffffffffffffffffffffffffffffffffffffffff82169050919050565b600061104182611016565b9050919050565b61105181611036565b82525050565b60008115159050919050565b61106c81611057565b82525050565b600081519050919050565b600082825260208201905092915050565b60005b838110156110ac578082015181840152602081019050611091565b60008484015250505050565b6000601f19601f8301169050919050565b60006110d482611072565b6110de818561107d565b93506110ee81856020860161108e565b6110f7816110b8565b840191505092915050565b600060e082019050611117600083018a611048565b6111246020830189611048565b6111316040830188610f3f565b61113e6060830187610f3f565b61114b6080830186611063565b61115860a0830185611063565b81810360c083015261116a81846110c9565b905098975050505050505050565b61118181611036565b82525050565b61119081610f35565b82525050565b61119f81611057565b82525050565b600082825260208201905092915050565b60006111c182611072565b6111cb81856111a5565b93506111db81856020860161108e565b6111e4816110b8565b840191505092915050565b600060e0830160008301516112076000860182611178565b50602083015161121a6020860182611178565b50604083015161122d6040860182611187565b5060608301516112406060860182611187565b5060808301516112536080860182611196565b5060a083015161126660a0860182611196565b5060c083015184820360c086015261127e82826111b6565b9150508091505092915050565b600060208201905081810360008301526112a581846111ef565b905092915050565b60006020820190506112c26000830184611048565b92915050565b600080fd5b600080fd5b7f4e487b7100000000000000000000000000000000000000000000000000000000600052604160045260246000fd5b61130a826110b8565b810181811067ffffffffffffffff82111715611329576113286112d2565b5b80604052505050565b600061133c610f69565b90506113488282611301565b919050565b600067ffffffffffffffff821115611368576113676112d2565b5b611371826110b8565b9050602081019050919050565b82818337600083830152505050565b60006113a061139b8461134d565b611332565b9050828152602081018484840111156113bc576113bb6112cd565b5b6113c784828561137e565b509392505050565b600082601f8301126113e4576113e36112c8565b5b81356113f484826020860161138d565b91505092915050565b60006020828403121561141357611412610f73565b5b600082013567ffffffffffffffff81111561143157611430610f78565b5b61143d848285016113cf565b91505092915050565b7f41756374696f6e206e6f74207374617274656420796574000000000000000000600082015250565b600061147c60178361107d565b915061148782611446565b602082019050919050565b600060208201905081810360008301526114ab8161146f565b9050919050565b7f41756374696f6e20616c726561647920656e6465642e00000000000000000000600082015250565b60006114e860168361107d565b91506114f3826114b2565b602082019050919050565b60006020820190508181036000830152611517816114db565b9050919050565b7f546865726520616c7265616479206973206120686967686572206269642e0000600082015250565b6000611554601e8361107d565b915061155f8261151e565b602082019050919050565b6000602082019050818103600083015261158381611547565b9050919050565b600060608201905061159f6000830186610f3f565b6115ac6020830185611048565b6115b96040830184610f3f565b949350505050565b7f4f6e6c792061756374696f6e206f776e65722063616e2073746172742074686560008201527f2061756374696f6e000000000000000000000000000000000000000000000000602082015250565b600061161d60288361107d565b9150611628826115c1565b604082019050919050565b6000602082019050818103600083015261164c81611610565b9050919050565b7f41756374696f6e20616c72656164792073746172746564000000000000000000600082015250565b600061168960178361107d565b915061169482611653565b602082019050919050565b600060208201905081810360008301526116b88161167c565b9050919050565b7f4e487b7100000000000000000000000000000000000000000000000000000000600052601160045260246000fd5b60006116f982610f35565b915061170483610f35565b925082820190508082111561171c5761171b6116bf565b5b92915050565b60006040820190506117376000830185610f3f565b6117446020830184610f3f565b9392505050565b7f4e487b7100000000000000000000000000000000000000000000000000000000600052602260045260246000fd5b6000600282049050600182168061179257607f821691505b6020821081036117a5576117a461174b565b5b50919050565b7f41756374696f6e20646f6573206e6f7420657869737400000000000000000000600082015250565b60006117e160168361107d565b91506117ec826117ab565b602082019050919050565b60006020820190508181036000830152611810816117d4565b9050919050565b7f41756374696f6e206e6f742079657420656e6465642e00000000000000000000600082015250565b600061184d60168361107d565b915061185882611817565b602082019050919050565b6000602082019050818103600083015261187c81611840565b9050919050565b7f656e6441756374696f6e2068617320616c7265616479206265656e2063616c6c60008201527f65642e0000000000000000000000000000000000000000000000000000000000602082015250565b60006118df60238361107d565b91506118ea82611883565b604082019050919050565b6000602082019050818103600083015261190e816118d2565b9050919050565b60008190508160005260206000209050919050565b60006020601f8301049050919050565b600082821b905092915050565b6000600883026119777fffffffffffffffffffffffffffffffffffffffffffffffffffffffffffffffff8261193a565b611981868361193a565b95508019841693508086168417925050509392505050565b6000819050919050565b60006119be6119b96119b484610f35565b611999565b610f35565b9050919050565b6000819050919050565b6119d8836119a3565b6119ec6119e4826119c5565b848454611947565b825550505050565b600090565b611a016119f4565b611a0c8184846119cf565b505050565b5b81811015611a3057611a256000826119f9565b600181019050611a12565b5050565b601f821115611a7557611a4681611915565b611a4f8461192a565b81016020851015611a5e578190505b611a72611a6a8561192a565b830182611a11565b50505b505050565b600082821c905092915050565b6000611a9860001984600802611a7a565b1980831691505092915050565b6000611ab18383611a87565b9150826002028217905092915050565b611aca82611072565b67ffffffffffffffff811115611ae357611ae26112d2565b5b611aed825461177a565b611af8828285611a34565b600060209050601f831160018114611b2b5760008415611b19578287015190505b611b238582611aa5565b865550611b8b565b601f198416611b3986611915565b60005b82811015611b6157848901518255600182019150602085019450602081019050611b3c565b86831015611b7e5784890151611b7a601f891682611a87565b8355505b6001600288020188555050505b505050505050565b6000606082019050611ba86000830186610f3f565b611bb56020830185611048565b8181036040830152611bc781846110c9565b9050949350505050565b60006040820190508181036000830152611beb81856110c9565b90508181036020830152611bff81846110c9565b90509392505050565b60006040820190508181036000830152611c2281856110c9565b9050611c316020830184611048565b9392505050565b7f4e487b7100000000000000000000000000000000000000000000000000000000600052605160045260246000fdfea26469706673582212204c6d6d8819e36425d523485ee0868aa65c2ca862bb01ed98b5b07e93d69ec85a64736f6c63430008180033",
  "linkReferences": {},
  "deployedLinkReferences": {}
}